{
  "contractName": "VendingMachine",
  "abi": [
    {
      "inputs": [],
      "stateMutability": "nonpayable",
      "type": "constructor"
    },
    {
      "inputs": [
        {
          "internalType": "address",
          "name": "",
          "type": "address"
        }
      ],
      "name": "balance",
      "outputs": [
        {
          "internalType": "uint256",
          "name": "",
          "type": "uint256"
        }
      ],
      "stateMutability": "view",
      "type": "function"
    },
    {
      "inputs": [],
      "name": "owner",
      "outputs": [
        {
          "internalType": "address",
          "name": "",
          "type": "address"
        }
      ],
      "stateMutability": "view",
      "type": "function"
    },
    {
      "inputs": [
        {
          "internalType": "uint256",
          "name": "amount",
          "type": "uint256"
        }
      ],
      "name": "getItem",
      "outputs": [],
      "stateMutability": "payable",
      "type": "function"
    },
    {
      "inputs": [
        {
          "internalType": "uint256",
          "name": "amount",
          "type": "uint256"
        }
      ],
      "name": "restock",
      "outputs": [],
      "stateMutability": "nonpayable",
      "type": "function"
    },
    {
      "inputs": [],
      "name": "getVendingMachineBalance",
      "outputs": [
        {
          "internalType": "uint256",
          "name": "",
          "type": "uint256"
        }
      ],
      "stateMutability": "view",
      "type": "function"
    }
  ],
  "bytecode": "0x608060405234801561001057600080fd5b50336000806101000a81548173ffffffffffffffffffffffffffffffffffffffff021916908373ffffffffffffffffffffffffffffffffffffffff1602179055506064600160003073ffffffffffffffffffffffffffffffffffffffff1673ffffffffffffffffffffffffffffffffffffffff16815260200190815260200160002081905550610540806100a56000396000f3fe60806040526004361061004a5760003560e01c80633129e7731461004f5780638da5cb5b1461006b578063c21a702a14610096578063e3d670d7146100bf578063e7644d34146100fc575b600080fd5b61006960048036038101906100649190610345565b610127565b005b34801561007757600080fd5b506100806101d6565b60405161008d91906103b3565b60405180910390f35b3480156100a257600080fd5b506100bd60048036038101906100b89190610345565b6101fa565b005b3480156100cb57600080fd5b506100e660048036038101906100e191906103fa565b6102ab565b6040516100f39190610436565b60405180910390f35b34801561010857600080fd5b506101116102c3565b60405161011e9190610436565b60405180910390f35b80600160003373ffffffffffffffffffffffffffffffffffffffff1673ffffffffffffffffffffffffffffffffffffffff16815260200190815260200160002060008282546101769190610480565b9250508190555080600160003073ffffffffffffffffffffffffffffffffffffffff1673ffffffffffffffffffffffffffffffffffffffff16815260200190815260200160002060008282546101cc91906104d6565b9250508190555050565b60008054906101000a900473ffffffffffffffffffffffffffffffffffffffff1681565b3373ffffffffffffffffffffffffffffffffffffffff1660008054906101000a900473ffffffffffffffffffffffffffffffffffffffff1673ffffffffffffffffffffffffffffffffffffffff161461025257600080fd5b80600160003073ffffffffffffffffffffffffffffffffffffffff1673ffffffffffffffffffffffffffffffffffffffff16815260200190815260200160002060008282546102a19190610480565b9250508190555050565b60016020528060005260406000206000915090505481565b6000600160003073ffffffffffffffffffffffffffffffffffffffff1673ffffffffffffffffffffffffffffffffffffffff16815260200190815260200160002054905090565b600080fd5b6000819050919050565b6103228161030f565b811461032d57600080fd5b50565b60008135905061033f81610319565b92915050565b60006020828403121561035b5761035a61030a565b5b600061036984828501610330565b91505092915050565b600073ffffffffffffffffffffffffffffffffffffffff82169050919050565b600061039d82610372565b9050919050565b6103ad81610392565b82525050565b60006020820190506103c860008301846103a4565b92915050565b6103d781610392565b81146103e257600080fd5b50565b6000813590506103f4816103ce565b92915050565b6000602082840312156104105761040f61030a565b5b600061041e848285016103e5565b91505092915050565b6104308161030f565b82525050565b600060208201905061044b6000830184610427565b92915050565b7f4e487b7100000000000000000000000000000000000000000000000000000000600052601160045260246000fd5b600061048b8261030f565b91506104968361030f565b9250827fffffffffffffffffffffffffffffffffffffffffffffffffffffffffffffffff038211156104cb576104ca610451565b5b828201905092915050565b60006104e18261030f565b91506104ec8361030f565b9250828210156104ff576104fe610451565b5b82820390509291505056fea2646970667358221220aa18974ba743f1338e5d1e76712f6b560a45725b208dfbb774a18867dbae1ced64736f6c634300080d0033",
  "immutableReferences": {},
  "source": "// SPDX-License-Identifier: MIT\npragma solidity ^0.8.9;\n\n//state variables - owner, balance\n//functions - restock, getItem\n\ncontract VendingMachine{\n    //state variables\n    address public owner;\n    mapping (address => uint) public balance;\n\n//initialize state variables here\n    constructor(){\n        owner = msg.sender;\n        balance[address(this)]=100;\n    }\n\n//to buy an item from the vending machine\n    function getItem(uint amount) public payable{\n        balance[msg.sender] += amount;\n        balance[address(this)] -= amount;\n    }\n\n//let's the owner restock the vending machine\n    function restock(uint amount) public {\n        require(owner == msg.sender);\n        balance[address(this)] += amount;\n    }\n\n     function getVendingMachineBalance() public view returns (uint) {\n        return balance[address(this)];\n    }\n}",
  "sourcePath": "/Users/sneha/rails_projects/Solidity Projects/truffle-tut/contracts/VendingMachine.sol",
  "compiler": {
    "name": "solc",
    "version": "0.8.13+commit.abaa5c0e.Emscripten.clang"
  },
  "schemaVersion": "3.4.7",
  "updatedAt": "2022-04-26T10:43:44.320Z",
  "devdoc": {
    "kind": "dev",
    "methods": {},
    "version": 1
  },
  "userdoc": {
    "kind": "user",
    "methods": {},
    "version": 1
  }
}